:1000000000FCFF1F11040000311E0000B10E0000B3
:10001000B10E0000B10E0000B10E0000B10E0000E4
:10002000B10E0000B10E0000B10E0000B10E0000D4
:10003000B10E0000B10E0000B10E0000612C0000F6
:10004000B10E0000B10E0000B10E0000B10E0000B4
:10005000B10E0000B10E0000B10E0000B10E0000A4
:10006000B10E0000B10E0000B10E0000B10E000094
:10007000B10E0000B10E0000B10E0000B10E000084
:10008000B10E0000B10E0000B10E0000B10E000074
:10009000B10E0000B10E0000B10E0000B10E000064
:1000A000B12D0000B10E0000B10E0000B10E000035
:1000B00001780000B10E0000B10E0000B10E00008A
:10040000FFFFFFFFFFFFFFFFFFFFFFFF7EFFFFFF7D
:1004100072B6244880F30888234880F309880220B4
:1004200080F31488BFF36F8F00F0FAFC03F058F8E4
:100430001E481F491B4A914202DA08600431FAE75C
:100440001C49194A914202DA08600431FAE71A4954
:100450001A4A1B4B9A4204DA0868106004310432CD
:10046000F8E700201749184A914202DA086004317F
:10047000FAE700F0EDFC00F0DBFC144C144DAC424C
:1004800003DA216888470434F9E703F001FD114CD1
:10049000114DAC4203DA216888470434F9E70F496B
:1004A0000847000000FCFF1F00FEFF1F5555555573
:1004B00000F8FF1F00FCFF1FB893000000FEFF1FA5
:1004C00040FEFF1F00000020E00C00201004000090
:1004D000100400001004000010040000410E000091
:1004E000F0B544464D4656465F46F0B46B46CB6089
:1004F000C3689D46F0BCA046A946B246BB46F0BDC7
:1005000000F086FD62B6281CA047002001F060F9CB
:1005100000F066FD00F0FCFF00F07AFD014A024B9E
:100520001360FEE704ED00E00000008000224308B5
:100530008B4274D303098B425FD3030A8B4244D3AB
:10054000030B8B4228D3030C8B420DD3FF220902ED
:1005500012BA030C8B4202D31212090265D0030BAC
:100560008B4219D300E0090AC30B8B4201D3CB03A2
:10057000C01A5241830B8B4201D38B03C01A5241E4
:10058000430B8B4201D34B03C01A5241030B8B42E6
:1005900001D30B03C01A5241C30A8B4201D3CB02D1
:1005A000C01A5241830A8B4201D38B02C01A5241B6
:1005B000430A8B4201D34B02C01A5241030A8B42B9
:1005C00001D30B02C01A5241CDD2C3098B4201D3D1
:1005D000CB01C01A524183098B4201D38B01C01A4F
:1005E000524143098B4201D34B01C01A52410309C6
:1005F0008B4201D30B01C01A5241C3088B4201D375
:10060000CB00C01A524183088B4201D38B00C01A21
:10061000524143088B4201D34B00C01A5241411A48
:1006200000D20146524110467047FFE701B5002055
:1006300000F0F0F802BDC0460029F7D076E7704719
:1006400003460B437FD4002243088B4274D3030933
:100650008B425FD3030A8B4244D3030B8B4228D3D4
:10066000030C8B420DD3FF22090212BA030C8B42FA
:1006700002D31212090265D0030B8B4219D300E09A
:10068000090AC30B8B4201D3CB03C01A5241830B1F
:100690008B4201D38B03C01A5241430B8B4201D3CF
:1006A0004B03C01A5241030B8B4201D30B03C01AF8
:1006B0005241C30A8B4201D3CB02C01A5241830A72
:1006C0008B4201D38B02C01A5241430A8B4201D3A1
:1006D0004B02C01A5241030A8B4201D30B02C01ACB
:1006E0005241CDD2C3098B4201D3CB01C01A524132
:1006F00083098B4201D38B01C01A524143098B42BB
:1007000001D34B01C01A524103098B4201D30B01A3
:10071000C01A5241C3088B4201D3CB00C01A5241C8
:1007200083088B4201D38B00C01A524143088B428D
:1007300001D34B00C01A5241411A00D20146524126
:10074000104670475DE0CA0F00D04942031000D345
:100750004042534000229C4603098B422DD3030A9A
:100760008B4212D3FC22890112BA030A8B420CD3AA
:10077000890192118B4208D3890192118B4204D3D3
:1007800089013AD0921100E08909C3098B4201D353
:10079000CB01C01A524183098B4201D38B01C01A8D
:1007A000524143098B4201D34B01C01A5241030904
:1007B0008B4201D30B01C01A5241C3088B4201D3B3
:1007C000CB00C01A524183088B4201D38B00C01A60
:1007D0005241D9D243088B4201D34B00C01A524137
:1007E000411A00D20146634652415B10104601D3C4
:1007F0004042002B00D54942704763465B1000D34E
:10080000404201B5002000F005F802BD0029F8D0F3
:1008100016E770477047C046F0B55746DE464E466D
:100820004546E0B5834606000F03480087B0924670
:100830001D003F0B400DCC0F002800D16FE0DE4BB8
:10084000984238D08023FF001B041F43730F3B43A3
:100850000193DA4B0027994600239B46F60081441A
:100860002B0369001B0B52469846490DED0F0029DA
:1008700000D185E0D04B994200D173E04346DA00C5
:1008800080231B0413435246CC48520F8446134323
:10089000524600206144D200894421006940009101
:1008A0008C46012149448A460F2F00D990E0C44963
:1008B000BF00CF59BF465B463B43019300D06AE17E
:1008C00002230827002681469B46C9E73200584686
:1008D000019B61460091022800D175E0032800D1F8
:1008E000FEE1012800D02CE100230027002600258E
:1008F0003F032A0D3F0BB34812053A4302401B0544
:100900001343009A5B00D1075B080B4330001900CA
:1009100007B03CBC90469946A246AB46F0BD5B464C
:100920003B43019300D12FE1002F00D1A5E1380016
:1009300000F054FA03000B3B1C2B00DD96E11D2256
:10094000D31A5A460100DA405E4608398F40130038
:100950008E403B4301939C4B00271B1A9946002372
:100960009B467DE7414653460B4393498C46E14401
:10097000002B00D01AE102220220174300228CE74C
:10098000134300D10DE14346002B00D181E14046E5
:1009900000F024FA02000B3A1C2A00DD72E101008B
:1009A000434608398B4098461D239A1A5346D34034
:1009B0001A004346134352468A404946081A824960
:1009C00089468144002068E77B4B002700268EE79C
:1009D000140C1204120C1100370C3604350C794338
:1009E00028008C462E006043604483465643210015
:1009F000300C80465846794340440291844506D9DC
:100A00008846802149028C46E044414602913604E2
:100A1000010C360C00048B4681191E0C1B041B0CA8
:100A20000391190079438C46280075436544A84614
:100A30005843050C45447743A94203D98021490214
:100A40008C466744290C8C4639000004000C2D04A8
:100A50002D186144AB4405915946049101990F0446
:100A60003F0C080C390051434243904602008C462B
:100A7000090C8B4662437C4344445C44A04503D943
:100A80008021490288464244210C88466146090477
:100A9000090C8C4639005943434370437E430F0C85
:100AA000F6182404BE19644442448C46B34203D968
:100AB00080235B0298464044029B61469846049B13
:100AC000370443449B46AB45AD416B420D04059949
:100AD0002D0C8C467F196744FD18A8465D462D19DC
:100AE000A542A44193466442A446C344DC448F42D9
:100AF000BF4198459B4193459241A445A4415B4227
:100B00007F421F43360C52426442BF192243BF1832
:100B1000624638184302D20D039913436A020A430E
:100B2000501E82416146ED0D2A434E023243D901E7
:100B300000D4B3E00126500832400243DE073243BE
:100B40005B08224C5444002C62DD510709D00F2071
:100B50001040042805D0101D9042924152429B182B
:100B60000200D90104D580241948E400034054440C
:100B70001848844200DD27E75E075B02D2081F0B9E
:100B8000630516435B0DB2E6002399460133042743
:100B900000269B4664E60323019781460C279B466B
:100BA0005EE6012201201743002276E6032303209C
:100BB0001F43434671E6C046FF07000001FCFFFFEC
:100BC000347A0000FFFF0F800DFCFFFFFF030000E1
:100BD000FFFFFFFEFE0700000023802700933F0376
:100BE0000026434B83E6019B3200A446584670E63C
:100BF000AC466EE6802701993F0339422DD03B4237
:100C00002BD11F433F033F0B00951600384B6EE678
:100C100001252D1B382D00DD66E61F2D40DC3548F3
:100C20001C005044160082408440EE40501E824119
:100C300034431443EB40620709D00F222240042AB8
:100C400005D02200141D9442804140421B181A0214
:100C50003ED501230027002649E68027019B3F035C
:100C60001F433F033F0B0094214B40E603005A46CD
:100C7000283B9A40002601926DE6584600F0AEF8F7
:100C8000203057E603005246283B9A4013000022CA
:100C900093E6504600F0A2F820307BE6CA4650E7C3
:100CA0001F201E004042041BE640202D03D0124CA2
:100CB0005444A3401A43501E824132430726002762
:100CC000164009D00F200023104014000428B9D189
:100CD00022005E075B021F0BD2081643002306E6C4
:100CE00080273F031F433F033F0B1600004BFEE5E9
:100CF000FF0700001E0400003E04000030B5144D44
:100D00000A034B00120B5B0DC90F0024AB4211DD2F
:100D1000104CA34210DC8024640322430E4CE41ADE
:100D20001F2C0CDD0D48C31ADA4013005C42002969
:100D300000D11C00200030BD094BCC18FAE7094D4A
:100D4000E040AC4663449A4013000343EEE7C046DC
:100D5000FE0300001D040000330400001304000023
:100D6000FFFFFF7FEDFBFFFF70B500282DD0C317FD
:100D7000C5185D40C40F280000F030F8154B1B1A51
:100D80005B055B0D0A2815DD0B38854000222D031D
:100D90002D0B002110002D030A0D2D0B12052A43E7
:100DA0000D4D1B052A4013435B00E4075B082343FA
:100DB000190070BD02002900153291400A000B2174
:100DC000081AC5402D032D0BE3E70024002300255E
:100DD0000022DEE71E040000FFFF0F801C2101231C
:100DE0001B04984201D3000C10391B0A984201D30E
:100DF000000A08391B09984201D30009043902A2EC
:100E0000105C40187047C046040302020101010152
:100E100000000000000000000000000000000000D2
:100E20007047C04600000000000000000000000005
:100E30007047C046000000000000000000000000F5
:100E4000FEE7C046000000000000000000000000B7
:100E500080229446F0B50027104E114D114C124BD4
:100E60001249B4449C420DD91A0001C901C29442EE
:100E7000FBD8DA431419A4080134A4001B199D42BD
:100E800002D980C39D42FCD81036664504D0316833
:100E90007368B468F568E5E7F0BDC046747A000091
:100EA000E00C0020E00C0020E00C0020F893000093
:100EB000FEE7C04600000000000000000000000047
:100EC00030BFFDE70000000000000000000000004F
:100ED00010B500F0ADF900F043F900230F4C236387
:100EE000636300F09DFE00F0FBFE200080220C49B1
:100EF000383000F03DFB0B4B0122C3612023C2546C
:100F0000094A0A49136AA0610B40136200F058F8BD
:100F100062B6074800F0A4FB10BDC046D800002010
:100F2000807C000000FCFF1F00ED00E0FFFF00FFE1
:100F3000F47A000000000000000000000000000043
:100F400072B6014BD862FEE7D80000200000000016
:100F5000F0B5C64600B500F0D3F82322154DA969B7
:100F60008B5C002B01D0013B8B542F0000F0C8F8A4
:100F7000AB6AEC6901331C37AB62BC4217D0A36883
:100F8000013BA360002B12D198464346E668E3601C
:100F900023685F60EB6100F06BF862B62069B047D0
:100FA00072B600F04DF8EC69A368002BEDD004BCDC
:100FB0009046F0BDD80000200000000000000000B6
:100FC000054B10B51A6B002A02D15B6B002B02D0C7
:100FD0000248FFF7B5FF10BDD8000020147B0000C9
:100FE00010B5064C236B002B02D1636B002B02D093
:100FF0000348FFF7A5FF0123636310BDD80000205D
:101000002C7B000000000000000000000000000039
:1010100010B5074C236B002B05D1636B002B02DD51
:101020000023636310BD0348FFF78AFFF8E7C0465B
:10103000D80000203C7B0000000000000000000001
:1010400010B5064C236B002B02DD636B002B02D026
:101050000348FFF775FF0123636310BDD80000202C
:10106000347B0000000000000000000000000000D1
:1010700010B5074C236B002B05DD636B002B02DDE5
:101080000023636310BD0348FFF75AFFF8E7C0462B
:10109000D8000020447B0000000000000000000099
:1010A00010B572B6074C236B002B02DB626B002A73
:1010B00003D00548FFF744FF236B0133236362B677
:1010C00010BDC046D80000201C7B000000000000BE
:1010D00010B572B6074C236B002B02DD626B002A41
:1010E00003D00548FFF72CFF236B013B236362B657
:1010F00010BDC046D8000020247B00000000000086
:10110000064B10B51A6B002A03DB5B6B002B00DD6E
:1011100010BD0348FFF714FFFAE7C046D8000020CF
:101120004C7B0000000000000000000000000000F8
:10113000064B10B51A6B002A03D15B6B002B00DD48
:1011400010BD0348FFF7FCFEFAE7C046D8000020B8
:10115000547B0000000000000000000000000000C0
:10116000054B1A001C32DA611A62012252425A629D
:1011700000229A627047C046D8000020000000009C
:10118000F8B505000C0016001F00FFF7B9FF002D91
:101190001CD0002E1AD0002C18D00E492F61CB691C
:1011A000EE609A68944204D91B68A41A9A68A24215
:1011B000FAD35A682B606A6015605D60AC609A680B
:1011C000141B9C6001235B424B62F8BD0248FFF791
:1011D000B7FEE2E7D80000205C7B000000000000C2
:1011E00010B50400FFF78CFF002C17D0E368002B2C
:1011F00010D0A16823688C469A6862449A6062683D
:10120000136023685A6000230122E360054B5242B9
:101210005A6210BD0448FFF793FEEAE70248FFF761
:101220008FFEE3E7D8000020687B0000000000008C
:101230000022034B1B605B609A601B615B6170471F
:10124000D8000020000000000000000000000000A6
:1012500010B50400FFF754FF002C19D02023E35CE5
:10126000002B11D00F2B0FD020230022E254A268B4
:10127000094B1B6899689142FBD25A6823606260EF
:10128000200014605C6010BD0448FFF759FEEBE7D6
:101290000248FFF755FEE1E7D8000020987B0000E8
:1012A00070B5040072B6FFF7CBFE2023E35C072B7A
:1012B0000ED8114A9B00D3589F46656AFFF720FF5E
:1012C000AB680133AB60226863681A6022685360C0
:1012D00001235B4263622000FFF7BAFFFFF7C8FEFD
:1012E00062B670BD0022636A20001A6001235B426F
:1012F0006362FFF7ADFFF1E7787B000000000000BC
:1013000010B50400FFF7FCFE002C19D02023E35C8D
:10131000002B11D00F2B0FD020230022E254A26803
:10132000094B1B6899689142FBD85A682360626038
:10133000200014605C6010BD0448FFF701FEEBE77D
:101340000248FFF7FDFDE1E7D8000020A47B000084
:1013500070B50F4C0600A569FFF7EAFE2023232293
:1013600014212068EE54A9540268546022600122BE
:10137000A061C254EFF30983EA69243B9A4203D97E
:101380000448FFF7DDFDA0692900FFF7A9F870BD4B
:10139000D8000020C87B0000000000000000000012
:1013A00070B50D0086B00600FFF7C2FE6B1C15D0AD
:1013B0000D4C0E4AA369290001A8FFF7E1FE300099
:1013C000FFF7C6FFFFF79CFE049B002B02D001A88D
:1013D000FFF706FFA369586A06B070BD3000FFF73B
:1013E000B7FF014CF6E7C046D8000020A11200006C
:1013F000F8B51B4C05000F00A669FFF799FE23689E
:10140000A34204D0A2699B6892689A4217D3AB6842
:10141000B2686F6293421AD93000FFF719FF202398
:1014200001220600A561EA54EFF30983C269243B57
:101430009A4210D831002800FFF752F8F8BD094849
:10144000FFF77EFDAB68B2686F629342E4D8280074
:10145000FFF7FEFEF2E70448FFF772FDEAE7C04639
:10146000D8000020B87B0000C87B0000000000000E
:101470002320084B1A689B699168185C9A680028B9
:1014800003D191424041C0B270478A4280414042FC
:10149000FAE7C046D800002000000000000000006D
:1014A00070B50D4C01212368A0691A685460226050
:1014B00020229954A361FFF723FF0500EFF309836E
:1014C000C269243B9A4202D90448FFF739FD29003A
:1014D000A069FFF705F870BDD8000020C87B0000A8
:1014E00010B5FFF725FEFFF70BFE054B1A689B6949
:1014F00092689B689A4201D9FFF7D2FF10BDC0469F
:10150000D8000020000000000000000000000000E3
:1015100070B5124C01212368A0691A682326546013
:1015200022602022A36199549B5D002B12D1FFF70A
:101530008FFE142305008355EFF30983EA69243BEA
:101540009A4202D90648FFF7FBFC2900A069FEF782
:10155000C7FF70BDFFF7D4FE0500EDE7D8000020FF
:10156000C87B000000000000000000000000000038
:10157000002383634363094B82600362084BC263A9
:101580005A69036142618161106158610300283327
:1015900083620433C36203637047C04602000114D0
:1015A000D800002000000000000000000000000043
:1015B00070B50400FFF7A4FD002C47D00723626834
:1015C0001A4202D1A16819423AD02248FFF7B8FC6A
:1015D000E168FF292ED82569002D2BD0A368626809
:1015E00018004838C2611A006C3AC260156165691A
:1015F0005561194D156222680224826120228160A2
:101600008454002214251F34025502340555C16349
:1016100001218263426322328154104A516902617E
:101620004161086150611A001C3B203A12601B6046
:101630005B6070BD0748FFF783FC2569E168CDE773
:101640008A42C2D28A1AC72AC2D8BEE70148FFF727
:1016500077FCB3E7047C000001050000D8000020FF
:1016600010B50400406800F0A3F9002802D0144827
:10167000FFF766FC6368A268934204D25521197093
:1016800001339A42FBD172B6FFF7AAFC2000FFF7A4
:101690008FFF00210400FFF7ABFEFFF7B9FC094BF9
:1016A0001A689A4204D09B6999689368994202D358
:1016B00062B6200010BD0448FFF742FCF8E7C046C0
:1016C0001C7C0000D8000020D87B00000000000037
:1016D00070B5040072B62225FFF782FC635D002B13
:1016E00032D02222013BA354226A204B13400F2BFD
:1016F0000CD0FFF78DFC1E4B1A689A4204D09B69F0
:1017000099689368994224D362B670BD636922696F
:101710001A6122695361FFF77BFC154B1A689A42E4
:1017200004D09B6999689368994216D362B62123C5
:10173000E25C1E3B1340012B13D0022BE5D1E16983
:10174000206C00F055FBE0E70A48FFF7F9FB635D0A
:10175000C7E70948FFF7F4FBD6E70748FFF7F0FBB8
:10176000E4E7E06900F0CCFACFE7C046FF00FF00F5
:10177000D8000020287C0000D87B0000000000007A
:10178000114B70B59C6925006062A06A2835A8429B
:1017900006D00368A362FFF75BFDA06AA842F8D1F8
:1017A0002223E35C002B08D12133E35C9B0704D1A7
:1017B000226963691A61226953610F20FFF7C8FD2E
:1017C0000248FFF7BDFB70BDD8000020387C000048
:1017D00010B5040072B6FFF703FC2000FFF7D0FF3E
:1017E00010BDC04600000000000000000000000026
:1017F00010B5040072B6FFF7F3FB002C02D10C48C1
:10180000FFF79EFB21000820FFF7CAFDFFF700FC51
:10181000084B1A689A4204D09B6999689368994268
:1018200001D362B610BD0448FFF78AFBF9E7C04652
:10183000E47B0000D8000020D87B000000000000FE
:1018400070B50368074D0400AE69002B02D006484E
:10185000FFF776FB266003207462FFF779FDAB6922
:10186000586A70BDD8000020447C000000000000D1
:1018700070B5046805000E00002C09D02023E35C3D
:10188000032B06D1002320002B606662FFF7E0FCEB
:1018900070BD0248FFF754FBF4E7C046547C0000DB
:1018A00010B500290AD0074B42689B6918605A603E
:1018B000136043600420FFF773FD10BD0120404218
:1018C000FBE7C046D8000020000000000000000038
:1018D00070B504680D00A0420DD023680360586005
:1018E0002023E35C042B02D00348FFF729FB656249
:1018F0002000FFF7ADFC70BDF07B00000000000091
:1019000070B572B6FFF76CFB22220B4C2569AB5CFD
:101910000133AB54FFF77CFB2368A34204D0A269D8
:101920009B6892689A4202D362B6280070BD034851
:10193000FFF706FBF8E7C046D8000020647C0000F3
:10194000F8B5060072B6FFF74BFB3469124DAC4296
:101950001FD02227E35DFF2B16D022220133A35490
:10196000FFF756FB2B68AB4204D0AA699B689268CC
:101970009A4205D362B63000FFF7AAFE2000F8BDF8
:101980000648FFF7DDFAF5E70548FFF7D9FAE35D0A
:10199000E3E70024E4E7C046D8000020647C0000B0
:1019A000707C00000000000000000000000000004B
:1019B00010B50400FFF7A4FF03E0FFF7C1FF002804
:1019C00002D0C3699C42F8D110BDC046000000009F
:1019D00010B5041E04D0002324606460A36010BD11
:1019E0000148FFF7ADFAF6E7A47C00000000000014
:1019F000F8B5434B04009D69FFF79AFB002C00D11A
:101A000070E0A06800284CD0AA68836820269A421B
:101A100007D98260835D062B48D0072B21D0002B8D
:101A200033D02200230003E09968A868814236D3AE
:101A30001B689C42F8D153682A606B6006201D60C9
:101A400055606C62FFF784FCA368AB4202D02D485E
:101A5000FFF776FAAB6BA34202D02A48FFF770FA81
:101A6000F8BD43680168196001684B60416A0B006A
:101A700002E09E6896423BD31B689942F9D14B68BD
:101A80000160436018604860CBE7012383554368D9
:101A900002681A6002685360FFF7DAFBC1E71A00B8
:101AA000C9E7AB6BA560E360AC63D9E74368016845
:101AB000196001684B60416A8C460B0002E09F6828
:101AC000974213D31B689942F9D1634603605B6860
:101AD000AA684360186063465860886883689342C8
:101AE00097D39EE70748FFF72BFA8AE79C46ECE777
:101AF00019004B68016043601860486091E7C04678
:101B0000D8000020B47C00000000000000000000AD
:101B100010B5040072B6FFF763FA2000FFF768FF04
:101B2000FFF776FA074B1A689A4204D09B699968C6
:101B30009368994201D362B610BD0348FFF700FADB
:101B4000F9E7C046D8000020987C000000000000A3
:101B5000F0B5C6462D4B00B5051E98469E6951D07E
:101B600072B6FFF73DFAB36B002B46D09A68B242CB
:101B700003D02748FFF7E4F9B36B9D4202D0244815
:101B8000FFF7DEF9EB68B363FFF7D2FA2868854206
:101B900030D0B46BF76B002C0CD0FFF7C9FA236878
:101BA0009C4203D09B689F4200D21F00E468002C37
:101BB000F3D128680368B7602B605D60836BA86011
:101BC000EB608563FFF744FBFFF78AFCFFF720FA21
:101BD00043461B68434505D0424692699B6892681C
:101BE0009A4203D362B604BC9046F0BD0948FFF7A1
:101BF000A7F9F7E70023AB60E8E70548FFF7A0F98E
:101C0000B36BB3E70248FFF79BF9A9E7D8000020C0
:101C1000C07C0000987C0000000000000000000074
:101C2000034B044A1A60044B044A1A607047C046CA
:101C300058010020E00C0020540100200018002072
:101C400070B50D000400FFF75BFA002D13D06B1E7A
:101C50001D4210D10B49631E0A686842013A5B19A4
:101C60005519094A034012682840121A9A4206D3AD
:101C7000C3180B6070BD0548FFF762F9EAE7002062
:101C8000F8E7C0465801002054010020D87C00002D
:101C900070B504000D0072B6FFF7A2F9290020000C
:101CA000FFF7CEFF0400FFF7B3F9084B1A689A421A
:101CB00004D09B6999689368994202D362B6200068
:101CC00070BD0348FFF73CF9F8E7C046D800002094
:101CD000CC7C0000000000000000000000000000BC
:101CE0000548064B10B5036000238360C3601030C5
:101CF000FFF76EFE10BDC04660010020911C000081
:101D0000F0B5C646050000B5002838D0430736D1E7
:101D1000083D2F686B683E000733DB0810376B60A7
:101D20003800FFF7F5FE234B083634009846AC42E6
:101D300005D863680133DB00E3189D4223D3236891
:101D4000B44201D0AC4203D2002B03D09D4201D358
:101D50001C00ECE72B606B6825605A1CD3002968D7
:101D6000EB188B4213D06268531CDB00E3189D42D2
:101D700019D03800FFF7ECFE04BC9046F0BD0D48CA
:101D8000FFF7DEF8C4E74046FFF7DAF8D7E759680F
:101D90001B688C4662446A6062682B60531CDB00DF
:101DA000E3189D42E5D16B6801339A182B68626095
:101DB0002360DEE7EC7C0000000000000000000073
:101DC00070B504000D00FFF79BF9002C05D0002D25
:101DD00003D023682B60256070BD0248FFF7B0F880
:101DE000F7E7C046047D000000000000000000008E
:101DF00070B504000D0072B6FFF7F2F8290020005C
:101E0000FFF7DEFFFFF704F9074B1A689A4204D088
:101E10009B6999689368994201D362B670BD034883
:101E2000FFF78EF8F9E7C046D8000020F87C0000E4
:101E300080B500AFEFF30983203383F3098862B6DE
:101E4000BD4680BD00000000000000000000000052
:101E5000B0B500AF0F300ED072B6EFF30984203C5E
:101E600084F3098880235B04E361FFF701FB00280A
:101E700003D1034BA361BD46B0BD024BA361FAE79A
:101E80001C0500001105000000000000000000001B
:101E900010B500F09DFD054800F0C2FE00F060F9AD
:101EA00001F026FB00F004F810BDC046F07E0000F3
:101EB00010B500F0EDFE10BD0000000000000000B5
:101EC000F0B5C64600B50400884615001F00069E02
:101ED00000281CD0002A1AD0012B18D94346320002
:101EE0002372002304377A43A362E362079BAA1894
:101EF0002363089BE66065612561E7612662656290
:101F000024606460A261636304BC9046F0BD024833
:101F1000FFF716F8E2E7C0461C7D00000000000055
:101F200070B504000D00FFF7EBF860692369834288
:101F300002D008C82B6070BDE368002BF9D00020E8
:101F4000F9E7C046000000000000000000000000AB
:101F500010B50400FFF7D4F8636922699A4210D0E3
:101F6000E2680132E260E2699446A2696344636117
:101F7000934201D3636A636100212000FFF7A8FC4C
:101F800010BDE268002AEBD00248FEF7D9FF636972
:101F9000E6E7C0462C7D00000000000000000000C5
:101FA00070B504000D00FFF7C3F808E0237A002B9A
:101FB00014D129002000FFF773FC00280DDBE36833
:101FC000002BF3D0E368002B0BD0236900201A1DEF
:101FD000A262E26994466344E36270BD022040421B
:101FE000FBE70248FEF7ACFFEFE7C046447D000088
:101FF00070B50D000400FFF79BF8002D1CD0E369BD
:10200000043BAB4218D3E368002B1BD023691D604F
:10201000E268013AE260E2699446A269634423619E
:10202000934201D3636A23610023A362236B002BD5
:1020300001D02000984770BD0448FEF781FFE36897
:10204000002BE3D10148FEF77BFFDFE7607D000056
:1020500070B504000E00150072B6FEF7C1FFA36A4A
:10206000002B1FD01E70A36AE26A0133A362934261
:1020700012D2FEF7CDFF174B1A689A4204D09B6923
:1020800099689368994203D362B60025280070BD11
:102090001148FEF755FFF7E7E3692000191FFFF726
:1020A000A7FFE6E729002000FFF77AFF051E01D110
:1020B000A36AD7E7FEF7ACFF064B1A689A4207D02F
:1020C0009B6999689368994202D20348FEF738FFEA
:1020D00062B6DBE7D8000020107D000000000000A1
:1020E00010B50400FFF70CF82369626900209342E1
:1020F00000D010BDE268002AFBD0A26A002AF8D006
:10210000043AD21AF5D01A60E268013AE260E26954
:102110009446A26963442361934201D3636A2361B5
:1021200000230120A362E4E700000000000000009B
:10213000D62310B50400C25C0833C25401F038F84D
:1021400063681B68002B02D00121200098470323FD
:10215000237010BD0000000000000000000000001F
:1021600010B500F0B5FF10BD000000000000000039
:1021700001230370002301004360030000224C335D
:1021800088311A60DA6304338B42FAD18260704777
:1021900070B504000D0000282AD0002928D072B69E
:1021A000FEF71EFF2378013B012B02D91248FEF7F0
:1021B000C7FE23002100002265600C334C3104C3AC
:1021C0008B42FCD1200000F09BFF02232370FEF71E
:1021D0001FFF0A4B1A689A4204D09B69996893685A
:1021E000994201D362B670BD0548FEF7A9FEF9E732
:1021F0000148FEF7A5FED2E7B87D0000D800002018
:10220000AC7D0000000000000000000000000000A5
:10221000F8B504000F001600FEF772FF002C23D063
:10222000002E21D02378042B02D01148FEF788FE1F
:10223000BD006519EB68002B02D00D48FEF780FE4B
:102240007069EE60002803D01422002105F08CFB99
:10225000B069002803D01422002105F085FB390065
:10226000200000F0B5FFF8BD0148FEF769FED9E790
:10227000C47D00000000000000000000000000001D
:10228000F8B50700FEF73CFF002F2CD03B78042B5D
:1022900002D01748FEF754FE01233C003E00002503
:1022A0003A8910341A403A817A894C3613407B813E
:1022B0002368002B10D05869002805D002210C306B
:1022C0004942FFF7D5FA23689869002804D0022113
:1022D0000C304942FFF7CCFA20C4B442E8D13800B0
:1022E00001F02EF8F8BD0248FEF72AFECEE7C04600
:1022F000D87D000000000000000000000000000089
:10230000F0B5C64600B505000E0090461F00FEF76A
:10231000F7FE002D1FD00F2E1DD80123B3406A8970
:102320009CB2144203D00E48FEF70AFE6A89144399
:102330004246B31C9B00EB185B686C819B693100C3
:102340009A6000221F6028005A60DA6001F060F88D
:1023500004BC9046F0BD0248FEF7F2FDDDE7C04642
:10236000F07D000000000000000000000000000000
:10237000F0B5C64600B505000E0090461F00FEF7FA
:10238000BFFE002D1FD00F2E1DD80123B3402A8978
:102390009CB2144203D00E48FEF7D2FD2A891443A2
:1023A0004246B31C9B00EB185B682C815B693100D3
:1023B0009A6000221F6028005A60DA6001F040F83D
:1023C00004BC9046F0BD0248FEF7BAFDDDE7C0460A
:1023D000047E00000000000000000000000000007B
:1023E000F8B50223DC220370040000230600070076
:1023F000002583500C3483604C362368002B17D0A3
:1024000072B6FEF71DFE23685869002805D0022128
:102410000C304942FFF72CFA23689869002804D051
:1024200002210C304942FFF723FAFEF721FE62B683
:1024300020C4B442E1D1C4233800FD5400F058FF59
:102440007B681B68002B02D0002138009847F8BD3C
:10245000E023027870B5C254DB3B0370436805008B
:102460001B68002B01D0042198472C004C350C34FC
:102470002368002B17D072B6FEF7E2FD2368586977
:10248000002805D002210C304942FFF7F1F92368FA
:102490009869002804D002210C304942FFF7E8F97E
:1024A000FEF7E6FD62B60434AC42E1D170BDC04631
:1024B000E023C35C10B5037043681B68002B01D098
:1024C0000521984710BDC046000000000000000034
:1024D000F8B50022C423C25402000400D43200F034
:1024E0006FFF63689B68002B2BD020009847002863
:1024F00027D0CC23E158DB23E25C013BE35C1202F2
:1025000013438B4200D396E0CC22A3500832A25C46
:1025100052B2002A00DA95E0002B00D17BE0C42300
:102520000422E25472B6FEF78BFDCC23C822E35896
:10253000A25800212000FFF7E3FEFEF799FD62B6E6
:1025400016E0D4266025A05D054012D000212000B1
:1025500000F096FF0021200000F082FF63681B68F6
:10256000002B02D0062120009847C4230622E25403
:10257000F8BDD5237F22E35C02401B021343C02237
:102580009200934200D1D4E01DD9C022D2009342E0
:1025900000D1B4E000D896E090221201934267D0B7
:1025A000954A934200D1D1E0802212019342CDD1CD
:1025B0002300C822DF33A350CC23C73AE2500433B0
:1025C000E550012197E7022B00D1CAE000D88AE04C
:1025D00080225200934265D002329342B6D1D62374
:1025E000E35C002BB2D10F21D833E35C194008D053
:1025F0005BB22000002B00DAF4E000F051FFD4239E
:10260000E05C0023C822A3500432A3500432A3503C
:1026100040B2002823DBC4230522E25472B6FEF741
:102620000FFD0023002200212000FFF7A1FEFEF78E
:102630001FFD62B69CE7D423E25C0B0052B2002A75
:1026400000DB69E7002B0AD0C4230122E25472B6F2
:10265000FEF7F6FCCC23C822E358A258E3E7C423D4
:102660000322E25472B6FEF7EBFC0023002260E77F
:10267000D626DF27A35DE25D9A42C2D02278042AE3
:1026800000D19AE0002B0AD0DF22A3540423237048
:1026900063681B68002B02D0022120009847D423D6
:1026A000E05CAEE7D623E35C012B00D04EE7DC22F2
:1026B0000221A35A8B43A352C823E5500433E550AB
:1026C0000433E550A4E74D4A93425CD0FF32FF3219
:1026D000934200D03AE7C823494AE5500433E55015
:1026E0000433E25094E7002B2DD12200C821DC32C4
:1026F0006250CC22C639A1500432A350FBE6D92344
:10270000E25C013BE35C12021343D721D6226068EE
:10271000A25C4668615C2000B047002800D115E744
:10272000C82342680168E2500433E1500433E550A5
:10273000E1E6D623E35C012B00D007E7DC2202218F
:10274000A35A0B43B7E7012B00D0FFE6C8232D4A5D
:10275000E25002220433E25000220433E25002210C
:10276000C9E6D8230F21E35C200019405BB2002B9F
:102770001CDB00F0F5FD01281CD0022800D0E5E6A6
:10278000C823214AE4E7D623E35C002B00D0DDE632
:102790000F21D833E35C194000D132E75BB220004F
:1027A000002B24DB00F05CFEA05D2AE700F0F0FDCA
:1027B0000128E2D1C823154ACAE772B6FEF740FCE9
:1027C0002000FFF75DFDFEF753FC62B60323E555DD
:1027D000237063681B68002B02D0032120009847F8
:1027E000A35D4FE700F06CFED423E05C09E700F046
:1027F00047FEA05D05E7C046020C00000203000092
:1028000031210000387E0000307E0000347E000060
:10281000C42310B5C35C0400062B42D82B4A9B008E
:10282000D3589F462A48FEF78BFB0021200000F07A
:1028300027FE0021200000F013FE63681B68002BB8
:1028400002D0062120009847C4230622E25410BD7E
:10285000CC23C0580F33E25C013BE35C120213430C
:10286000984205D2E368198AFDF7E6FE00291CD0DC
:10287000C4230322E25472B6FEF7E2FB00230022D7
:1028800000212000FFF73CFDFEF7F2FB62B6DEE719
:10289000D023C358002B00D09847C4230022E25411
:1028A000D5E70B48FEF74CFBD1E772B6FEF7C8FB45
:1028B0000023002200212000FFF75AFDFEF7D8FB7D
:1028C00062B6C4230222E254C1E7C046747D000010
:1028D000187E000000000000000000000000000062
:1028E000C42310B5C35C0400062B37D81D4A9B00D7
:1028F000D3589F461C48FEF723FB0021200000F020
:10290000BFFD0021200000F0ABFD63681B68002BB9
:1029100002D0062120009847C4230622E25410BDAD
:10292000C4230522C25472B6FEF78AFB002300229C
:1029300000212000FFF71CFDFEF79AFB62B6EEE7D0
:10294000C3689B695B68002BE9D1D033C358002B67
:1029500000D09847C4230022E254E0E70248FEF783
:10296000EFFADCE7907D0000247E0000000000000C
:102970000300094AC03389019B0099501F2201239B
:1029800002409340044A40099446C02280006044BB
:10299000520083500360704700E100E00000000037
:1029A00070B504000D000B2802D90548FEF7C8FADF
:1029B000044BA4009C46AD016444656070BDC046F4
:1029C0003C7E000018ED00E0000000000000000068
:1029D0007047C0460000000000000000000000003A
:1029E000882200218020374B520170B5995036491A
:1029F00080005A5888B002435A501A6833490A4036
:102A000069461A600A00324B70CB70C270CB70C23C
:102A100030CB30C22F4B304D9C6C2C409C64DA6C18
:102A200020242A40DA648A222C4B1A702C4B863AD6
:102A30005A705A7822435A7000239A008A58824268
:102A400039D00133082BF8D1B822254B1A701F2238
:102A5000D9780A40DA70002202215A719A7911421B
:102A6000FCD010221E498B791A42FCD10C211C4A41
:102A700093790B40082BFBD1013B137151335371F8
:102A8000202217498B791A42FCD04021144A9379AD
:102A90001942FCD00B4B13491348585013491448A2
:102AA0005850002313700C220D498B7913400C2BC6
:102AB000FBD108B070BD8022DB0052421A43D2B273
:102AC000C3E7C0460070044038100000FFFFF3FF6A
:102AD000047A000000900440FFF8FFFE005006401A
:102AE00000400640441000000000011004100000E7
:102AF00000000101000000000000000000000000D4
:102B000003690120CB4018407047C0460000000018
:102B100070B504000D0016001F2934D80123626926
:102B2000AB40062E21D09A43314B62619C4210D0BB
:102B3000304B9C422BD0304B9C4253D02F4B9C426D
:102B400052D02F4B9C4224D02E48FEF7F9F9002397
:102B500000E02D4B162E07D82C4AB6009259974606
:102B6000C022AD00D200EA5070BD13436361204B18
:102B70009C423BD01F4B9C42DDD1254B8022AD00B7
:102B80005200EA50F0E71F48FEF7DAF9C6E7204B9B
:102B9000E0E7204BDEE78022AD009200EA50E3E759
:102BA000A022AD00D200EA50DEE78022AD00D200C4
:102BB000EA50D9E7C022AD009200EA50D4E7812262
:102BC000AD005200EA50CFE70422AD00FF32EA50D8
:102BD000CAE70022AD00EA50C6E7E022AD00D2000D
:102BE000EA50C1E70C4BB5E70C4BB3E7064BC5E722
:102BF00000F00F4040F00F4080F00F40C0F00F4059
:102C000000F10F40B87E0000009004405C7E0000A0
:102C100000A0044000D0044000B0044000C00440C4
:102C2000F8B5F8230B490C4A9B018C580600234346
:102C30008B50A5239B00C7180024351DE1B204CD9D
:102C400030680134FFF764FF202CF7D18436BE4290
:102C5000F2D1F8BD00700440381000000000000000
:102C600010B57446FEF71CFA72B6FEF7E9F9FEF7E6
:102C70006FF9FEF7FDF962B6FEF72AFA2000FFF7BA
:102C8000E7F810BD00000000000000000000000098
:102C9000064B074A10B55A6000229A6007321A6044
:102CA00008210B20FFF77CFE10BDC04610E000E0BD
:102CB0007FBB0000000000000000000000000000DA
:102CC000F0B502248B1C9B00C01840688900456940
:102CD000008A2B7C21431943904200D91000002820
:102CE00018D000230D4FCC003E19AA68D15C726841
:102CF000D15401338342F8D12B7C88216A7C0004B3
:102D000008439101084301214A404B4038516A74FD
:102D10002B74F0BD014FCC00EFE7C046000400204B
:102D200084468900F0B58C44C646634600B5DF682A
:102D3000BD69AB7C19437B8A1C00934200D9140007
:102D4000002C29D0CA0000239046164886187268C5
:102D5000A968D25CCA540133A342F8D162467B8A87
:102D6000D768BC698821EE7C1B04B2010A43134377
:102D700042468350012320685E40EE74002808D04C
:102D8000798A01384018FDF7D1FB208204BC9046B7
:102D9000F0BD01232382F9E7CA002C0001489046C8
:102DA000E0E7C04600040020000000000000000032
:102DB000F0B5DE4657464E4645468023E0B5C14A4B
:102DC00083B0D45C7346E4B20193FEF769F96307FC
:102DD0000AD5BD4F7B68DB68002B01D038009847CF
:102DE00080230421B74AD154230700D48FE0B74B86
:102DF000B54F9B460123B34E984613E0AB69002BB9
:102E000000D1B1E09874092900D1CDE00D2900D19D
:102E1000AFE001292FD080220823B354B45CE4B280
:102E2000234274D09023F35CDBB21C09A21C9146B0
:102E30009200BA18556842469810DB101340A20061
:102E40009446424610406246590002430A43D2006B
:102E500092465A46514652589106090F002BCDD042
:102E6000092900D1A0E00D2900D182E00129D2D1A9
:102E7000AB69002BCFD09201930D9A4672B6FEF744
:102E8000DFF8524621003800FFF74AFFFEF7F0F85E
:102E900062B65346002BBED05146AB699A68524485
:102EA0009A605A6852445A601A68521A1A601A8A0A
:102EB000013A92B21A826B8A534500D8DEE0EB6881
:102EC000002BA8D04246A2407B8993437B814B468E
:102ED0009B00FB185B68DB68002B02D021003800E8
:102EE000984772B6FEF7ACF84B469B00FB185B6840
:102EF000986941680C30FEF7BBFCFEF7B9F862B682
:102F000080220823B354B45CE4B223428AD1012561
:102F1000254200D0A6E063B2002B00DA7CE0022359
:102F2000234206D08820674A115CC9B2115480211F
:102F30005354E30608D564480378042B00D1B7E066
:102F4000802310215F4AD1542025254200D06BE018
:102F5000FEF7BEF80198FEF77BFF03B03CBC90463D
:102F60009946A246AB46F0BD09291DD00D2900D0D7
:102F700051E762460223594613430022DB00CA5040
:102F8000614603230B435946DB00CA5042467B8906
:102F9000210093437B816B6938005A746B689847B2
:102FA00094234246F25436E76B69002B00D132E796
:102FB000002C06D1D422BA5A052A63D05A4651466B
:102FC000525859689201920D1868511859608142FF
:102FD00035D3AB68002B00D11DE74246A2403B89A8
:102FE00093433B814B469B00FB185B689B68002B1F
:102FF00002D021003800984772B6FEF721F84B4600
:103000009B00FB185B68002158690C30FEF730FC10
:10301000FEF72EF862B6FEE680232A4AD354022336
:10302000234200D185E77DE78422264C2648A35C15
:10303000AB43A354FFF73CFA8023E55488E7996833
:103040008C4662449A6072B6FDF7FAFF6B69210004
:103050001A685B683800D21AFFF732FEFEF708F8EC
:1030600062B6D8E61848FFF7BBF98023154AD55455
:10307000FEF72EF80198FEF7EBFE6EE7002A00D06F
:10308000C9E61CE7D622B95C0832B9545F3A0A4057
:10309000982172547A681268002A06D0973938004D
:1030A00090475B4652469B586B6903223A7085E70E
:1030B000FFF7CEF98422202002498B5C03438B5416
:1030C0003EE7C046002007408001002000040020A9
:1030D00010B50548FFF74CF880230449044ADB0289
:1030E000885803438B5010BD8001002000700440BD
:1030F00004100000000000000000000000000000BC
:10310000037810B5012B00D010BD224B9842FBD1A3
:10311000002200202049D300C8500132CB1858604B
:10312000102AF8D180231D481D4ADB02845823430E
:103130008350862080241B4A4000135C2343135491
:10314000135C5BB2002BFBDB9C240B0ADBB2135538
:103150000B0CDBB214341355B423090ED154802167
:103160004B3353540831535440211374135C0B43B5
:10317000135403219423D154002101206C33D154E2
:103180008431535C0343535418208239FFF7F0FB1A
:10319000BAE7C0468001002000040020007004400F
:1031A0003410000000200740000000000000000074
:1031B000DE23C25C5F3B1340982201498B54704769
:1031C0000020074000000000000000000000000098
:1031D000F0B5CE46474680B5102978D88B1C9B00A9
:1031E000C018436899469B69002B2FD000229A741F
:1031F000DA744B465E8A88233604384D33434F01D8
:1032000037487B5103788A003F2B1ED80378EF198B
:10321000DBB25C1CE4B20470324C9B01A4466344F4
:103220007B6001231A43C7331E43D20056510378F3
:103230003F2B51D80378AA18DBB25E1C9B01634474
:10324000F6B206705360082301E0FEE700234A4609
:103250005269002A2BD000270220177457748A0065
:1032600010431E4DC0001E4E4751904632783F2AF3
:1032700031D832782818D2B2541CE4B23470194CC8
:103280009201A44662444260424603201043C000BB
:10329000475132783F2A20D832782D18D2B2571CA5
:1032A00092016244FFB237706A60042213434A46B7
:1032B000032012680240012A03D001200343002AA0
:1032C00001D0102213433031074A89008B540CBCC3
:1032D00090469946F0BDFEE7FEE7FEE700040020B9
:1032E000C00A002000060020002007400000000067
:1032F000F8B500250E4B94271D7002230D4C0021BC
:10330000E3550D4B0600C360FFF762FFFF238822E1
:10331000A354083AA3545E32B554463AA5540C3A25
:10332000A3547B3B1332E254833BE355F8BDC046C4
:10333000C00A002000200740CC7E000000000000F2
:103340000123002104481A00303292000133115445
:10335000102BF8D17047C046002007400000000045
:1033600000200F290DD8074B89009C46C0236144DB
:10337000CA5C120705D5CB5C023018404342584165
:1033800001307047002007400000000000000000EE
:1033900000200F290DD8074B89009C46C0236144AB
:1033A000CA5C520705D5CB5C0230184043425841F5
:1033B00001307047002007400000000000000000BE
:1033C0008B009C4601006144CB68F0B59E69634662
:1033D000B07C0E4F18430023C0003D186C68E45CBD
:1033E000D4540133082BF9D18822CB685B8A1B04A3
:1033F0001A433A500122B17C514062461143C8221F
:10340000C90013437B500123F374F0BD0004002076
:103410000231890041184B6810B59C69206800286A
:1034200006D0598A40180138FDF780F8208210BD77
:1034300001232382FBE7C0460000000000000000DB
:103440008B1C9B00C31810B55B685B691A68FFF79B
:1034500037FC10BD0000000000000000000000006C
:10346000044BC0229C460220890061448B5C0343CC
:103470008B5470470020074000000000000000004F
:10348000044BC0229C460220890061448B5C0343AC
:103490008B5470470020074000000000000000002F
:1034A000044BC0229C460220890061448B5C83430C
:1034B0008B5470470020074000000000000000000F
:1034C000044BC0229C460220890061448B5C8343EC
:1034D0008B547047002007400000000000000000EF
:1034E00010B5FFF77DFA10BD0000000000000000DD
:1034F0007047C0460000000000000000000000000F
:1035000010B5222919D8184C890061588F461748E0
:1035100010BD032A11D81648D2008018F8E7042BF2
:103520000BD8144A9B00D3589F46042B05D8124A47
:103530009B00D3589F461148EAE70020E8E710486F
:10354000E6E71048E4E71048E2E71048E0E71048F3
:10355000DEE71048DCE71048DAE71048D8E7104803
:10356000D6E71048D4E7C046848100001C850000DF
:103570006C8500001082000024820000208300007F
:1035800018830000B0820000A48400001C840000A6
:1035900014850000DC820000908200004884000056
:1035A000D4830000D0840000000000000000000070
:1035B0007047C0460000000000000000000000004E
:1035C00010B5446B82B02378042B01D002B010BD3B
:1035D00023891B07FAD401A90548FEF7A1FC00289E
:1035E000F4D00200102303212000FEF7C1FEEDE716
:1035F000F40A0020000000000000000000000000AD
:103600007047C046000000000000000000000000FD
:103610007047C046000000000000000000000000ED
:103620007047C046000000000000000000000000DD
:103630007047C046000000000000000000000000CD
:1036400030B5040083B072B6FDF7FAFCFDF758FD03
:10365000134DEB68002B02D02800FDF7C1FD2300BD
:103660002800104A3221FDF78BFDA3690E4D5B69DE
:103670001B68002B10D101A92800FEF751FC00287F
:1036800005D00200102303212000FEF771FEFDF794
:10369000EFFC62B603B030BD2800FEF759FCEAE744
:1036A000400B002041370000F40A00200000000019
:1036B00070B5040072B6FDF7C3FC2378042B26D145
:1036C000194B1B78002B22D1184D2A78002A1ED0C6
:1036D00023899B071FD5164BFA219C465001801A5F
:1036E00080008018C00060448900FCF71FFF85003F
:1036F000FDF706FD0F4EF368002B02D03000FDF7FA
:103700006FFD23000C4A29003000FDF739FDFDF75D
:10371000AFFC62B670BD094A082301212000FEF704
:1037200027FE2A78D7E7C04631FEFF1FD00B0020C6
:10373000E7030000D40B0020B1360000EC0B0020A2
:1037400030B5040083B072B6FDF77AFC2378042B01
:1037500008D123891B0705D41A4D2800FEF7C0FCA9
:10376000002813D1FDF7CCFC174DEB68002B02D0DD
:103770002800FDF735FD2300144A32212800FDF70B
:10378000FFFCFDF775FC62B603B030BD280001A94F
:10379000FEF7C6FB051E11D0019B0F2B07D8290091
:1037A0000022EB1810311A7001338B42FBD1102329
:1037B0002A0003212000FEF7DBFDD3E70448FDF7D4
:1037C000BFFBE9E7F40A0020400B0020413700006E
:1037D000588200000000000000000000000000000F
:1037E0007F22D423110070B5C35C04001940212945
:1037F00021D0D422704BA25A9A421AD1D923E25C2A
:10380000013BE35C12021343D721D6226068A25C1D
:103810004568615C2000A84700280AD0C823426898
:10382000E25002680433E250002201200433E250E7
:1038300070BD0020FCE7934313D0802BD9D15533C2
:10384000C35C022B00D1A9E0032B00D197E0012B30
:10385000CFD1D733C35C042B75D8584A9B00D358BB
:103860009F46D523C35C0A2B76D00B2B34D0092B73
:10387000BFD1CF33C35C002B01D0042BB9D1C823F7
:103880004F4AE25004330122CDE7C8234D4AC250CB
:1038900004331022C7E7C8234B4AC2500433052221
:1038A000C1E7C823494AC25004331022BBE7D723DB
:1038B000C35C012BBDD1D623C35C022B74D0032B78
:1038C000B7D1C821424A42501370CC228350D02332
:1038D0000022C2500120ABE7D823C35A002B32D1BB
:1038E000D633C25C1300591E8B413A49DBB20B70D0
:1038F00039490B70002A26D1384D2B78002B22D065
:1039000072B6FDF79DFB2B785801C01A8000C018D5
:10391000334BFA219C46C00060448900FCF706FE48
:103920008600FDF7EDFB2F4DEB68002B02D0280041
:10393000FDF756FC23002C4A31002800FDF720FC3F
:10394000FDF796FB62B60023C822A3500432A350B1
:103950000432A35001206BE7D7231F4AC35C1F4DDD
:1039600012782B70002AEED1002BECD072B6FDF746
:1039700067FB2A785001801A80008018C8E7D82396
:10398000C35A002B00D034E7C822124981500121CC
:103990000432815004328350012049E7C8230F4A82
:1039A000C250043301223EE7094A1370C823C250B3
:1039B0000433032237E7C046810600003882000046
:1039C000E80B0020540B0020100C0020EC0B002012
:1039D000B80B002000FEFF1F31FEFF1FD00B0020A0
:1039E000E7030000D40B0020B13600000000000007
:1039F00010B503F06DFF00F0D3FC00F0B1FC10BD7A
:103A000010B503F05DFF10BD0000000000000000D5
:103A100010B50400042929D0052922D0022900D09C
:103A200010BD72B6FDF70CFB2000124A0121FEF713
:103A3000EFFB2000104A0221FEF7EAFB20000F4AAC
:103A40000321FEF7E5FB20000D4A0421FEF7E0FB11
:103A50000C4A05212000FEF7DBFBFDF709FB62B6EF
:103A6000DEE702F075F9FFF7C3FFD9E7FFF7C8FFFC
:103A7000D6E7C046B0830000248400006C820000BA
:103A8000B8820000AC8400000000000000000000CC
:103A900030B5174A174B85B0D35805005B0306D5E0
:103AA00084221020144952008B5C83438B541348AA
:103AB000FDF79EFE28001249FEF76AFB84221020C3
:103AC00000240D4952008B5C03438B540D4B0E4A6E
:103AD000DC600E4B029501930423012100930C48F6
:103AE0000C33FEF7EDF90B4BDC6005B030BDC04682
:103AF000007004403410000000200740DC05000086
:103B00008C850000D40B0020540B0020C135000030
:103B1000F40A0020400B002000000000000000001C
:103B200070B594240422064D0F202B5D13432B55B2
:103B3000FDF75EFE04222B5D93432B5570BDC046FE
:103B4000002007400000000000000000000000000E
:103B5000014B18787047C046E80B002000000000B9
:103B600070B5060072B6FDF73BFA324C2378042B91
:103B70000CD0FDF74DFA304B1A689A4204D09B697D
:103B80009968936899423BD362B670BDFDF740FADD
:103B9000294D2B68AB4204D0AA699B6892689A426F
:103BA00032D362B6254B1B78002B1FD172B6FDF7BE
:103BB00017FA23899B0730D4082332000121200003
:103BC000FEF7D6FBFDF724FA2B68AB4207D0AA69B3
:103BD0009B6892689A4202D21948FDF7B1F962B621
:103BE00010223100174803F07BFECEE772B6FDF7D6
:103BF000F7F923899B0616D4102332000521DEE74E
:103C00000F48FDF79DF9BFE70D48FDF799F962B63A
:103C10000A4B1B78002BC9D0E8E7236958690C30A0
:103C2000FDF70EFEC8E7236A58690C30FDF708FE61
:103C3000E2E7C04680010020D800002031FEFF1FCF
:103C40004C820000EC0B002000000000000000008F
:103C500070B5060072B6FDF7C3F91B4D2B78042B27
:103C60000CD0FDF7D5F9194B1A689A4204D09B691C
:103C700099689368994223D362B670BDFDF7C8F97D
:103C8000124C2368A34207D0A2699B6892689A42AB
:103C900002D20F48FDF754F962B672B6FDF7A0F9EB
:103CA0000523320002212800FEF762FBFDF7B0F980
:103CB0002368A342E0D0A2699B6892689A42DBD253
:103CC0000348FDF73DF9D7E780010020D800002028
:103CD0004C82000000000000000000000000000016
:103CE00010B5040082B072B6FDF77AF91048037877
:103CF000042B0AD1022301AA13706B465C71240ABB
:103D00009C7104210323FEF733FBFDF781F9094B76
:103D10001A689A4204D09B6999689368994202D3C1
:103D200062B602B010BD0448FDF70AF9F8E7C046D4
:103D300080010020D80000204C820000000000001C
:103D400010B5040082B072B6FDF74AF91048037846
:103D5000042B0AD1032301AA13706B465C71240A59
:103D60009C7104210323FEF703FBFDF751F9094B76
:103D70001A689A4204D09B6999689368994202D361
:103D800062B602B010BD0448FDF7DAF8F8E7C046A5
:103D900080010020D80000204C82000000000000BC
:103DA00010B5040072B6FDF71BF91A4B1B78042BF3
:103DB0000DD0FDF72DF9184B1A689A4204D09B6973
:103DC00099689368994215D362B6002010BDFDF73B
:103DD0001FF9114B1A689A4204D09B69996893683D
:103DE00099420BD362B6012221000C48FEF730F94C
:103DF00040B2EBE70A48FDF7A3F8E5E70848FDF70E
:103E00009FF862B6012221000448FEF721F940B272
:103E1000DCE7C04680010020D8000020F40A002022
:103E20004C820000000000000000000000000000C4
:103E300010B50800FFF7B4FF10BDC0460000000039
:103E40007047C046000000000000000000000000B5
:103E50007047C046000000000000000000000000A5
:103E600010B501F045FFDC23064CE35A9B0700D454
:103E700010BD01F055FF0028FAD02000FFF750FEDA
:103E8000F6E7C046800100200000000000000000AE
:103E900070B5FDF7FDFFFDF71BF8FFF7D1FF1D4CD7
:103EA0002000FFF7F5FD1C49002002F061F923789E
:103EB000042B05D03220FDF79BFC2378042BF9D18D
:103EC0003220FDF795FC154802F062F900F018FB6E
:103ED000134800F05DFA03F0CBFC124802F058F9E9
:103EE000FFF7B6FF104D01E000F012FB2378052B21
:103EF000FAD1280002F04CF92378052B04D1FFF702
:103F0000AFFF2378052BFAD001F04AFC02F0D8FE6F
:103F1000EAE7C04680010020313E00009C85000099
:103F20001CFEFF1FB0850000C485000000000000DB
:103F300001290FD0002908D0022901D000207047A4
:103F40008378002B0FD10948F9E78378002B08D03C
:103F50000748F4E78378002B01D00648EFE70648CE
:103F6000EDE70648EBE70648E9E7C046F0850000C4
:103F7000C8850000D8850000E0850000D0850000DD
:103F8000E8850000000000000000000000000000C4
:103F900010B50B4C022220000721FEF7B9FD2000CE
:103FA00002220421FEF7B4FD022202210548FEF799
:103FB000AFFD022205212000FEF7AAFD10BDC0467C
:103FC000C0F00F4040F00F40000000000000000073
:103FD00070B5284D284CFFF7DBFF28000322022193
:103FE000FEF796FD280003220321FEF791FD200035
:103FF00003220321FEF78CFD200003220421FEF79B
:1040000087FD200003220621FEF782FD2000032207
:104010000721FEF77DFD28000322184D0121FEF740
:1040200077FD200003220021FEF772FD2800032205
:104030000021FEF76DFD280003220121FEF768FD37
:10404000280003220321FEF763FD0023022120251F
:10405000FA200B4A4000136053600A4A1360536011
:10406000094A13780B4313706560FDF7C1FBA56027
:1040700070BDC046C0F00F4080F00F4040F00F40D0
:104080002C0C0020340C0020B80C00200000000094
:10409000F8B557464E464546DE46774B774C9A462E
:1040A000774BE0B59946774B270000269846764D2A
:1040B0000622022E00D1B1E0032E00D1D3E0012E62
:1040C00000D1C8E007216E48FEF722FD80234A4652
:1040D0009360202342460221D3606948FEF710FD19
:1040E0000138431E98410321830265489B46FEF731
:1040F00007FD012804D080235A469B001A439346AB
:1041000003216048FEF7FCFC012804D080235A46B6
:104110005B001A43934604215A48FEF7F1FC01283C
:1041200003D05A4680231A43934606215548FEF78A
:10413000E7FC012803D05A4640231A43934607213F
:104140005048FEF7DDFC012803D05A4620231A43CD
:10415000934601214A48FEF7D3FC012803D05A4672
:1041600010231A43934600214648FEF7C9FC012854
:1041700003D05A4608231A43934600213E48FEF7CF
:10418000BFFC012803D05A4604231A439346012159
:104190003948FEF7B5FC012803D05A4602231A43DA
:1041A000934603213448FEF7ABFC431E581E83415F
:1041B0005A461A4393B23A889A420BD03B802B78E6
:1041C000002B05D00122314B9B461B781A422DD182
:1041D00005232B700136F6B2FFF7DAFE0237042E04
:1041E00000D065E72B78002B0DD0013BDBB22B70A4
:1041F000002B0FD1264B22881A8062885A80A28811
:104200009A80E288DA8001203CBC90469946A2461A
:10421000AB46F8BD0120FDF7EBFAF4E702211648A2
:10422000FEF776FC04235246936052E7194801F0EA
:10423000AFFF5B4601221B781A42C9D02978164885
:1042400001F0A6FF5B4601221B781A42C0D013483A
:1042500001F09EFFBCE704210948FEF759FC10233A
:104260004A46936035E705210548FEF751FC2023B7
:104270004A4693602DE7C04640F00F40340C0020C2
:10428000C0F00F4080F00F4030FEFF1FB80C002040
:104290002C0C00208887000094870000009100000B
:1042A000014B4000185A70472C0C00200000000001
:1042B000F8B5CE464746124880B501F069FF114B6C
:1042C00000249946104B114F9846114E114D210074
:1042D000484601F05DFF404601F05AFF6300F85A7E
:1042E00001F0AEFC0100300001F052FF0134280063
:1042F00001F04EFF042CEAD10CBC90469946F8BD63
:104300006887000094870000389100002C0C002082
:104310008087000000910000000000000000000005
:104320000A04120E93009B185B009B182C2250432A
:104330001818034BC9B21818405C82B002B070471D
:1043400034860000000000000000000000000000B3
:10435000024BC0384000185A7047C046F88500002C
:1043600010B5830705D4022205210648FEF7D0FBCD
:1043700010BD044C062205212000FEF7C9FB2023B6
:104380006360F5E780F00F400000000000000000CF
:10439000014B18607047C0463C0C00200000000034
:1043A000044B10B51B68002B02D01B68984710BD4A
:1043B0000020FCE73C0C0020000000000000000092
:1043C000F0B5C646184B00B51B680400002B1FD083
:1043D0005B689847154F3A78530719D5D3071ED411
:1043E0002600134B10360125984602E00134A64200
:1043F0000CD02B001340F9D02178404601F0C8FEC4
:104400002B003A7801341340A642F2D1002B02D19E
:1044100004BC9046F0BD074801F0BAFEF8E7064834
:1044200001F0B6FE3A78DBE73C0C0020B80C002027
:10443000B887000000910000AC8700000000000079
:10444000034B10B51B68002B01D09B68984710BD2B
:104450003C0C0020000000000000000000000000F4
:104460000C4B10B51A88040082420CD018800A4BFD
:104470001B68002B07D0DB689847084B1A78052388
:104480001340052B00D010BD2100054801F080FE2F
:10449000F9E7C046420C00203C0C0020B80C00207C
:1044A000C0870000000000000000000000000000C5
:1044B0000C4B10B51A88040082420CD018800A4BAD
:1044C0001B68002B07D01B699847084B1A780523F7
:1044D0001340052B00D010BD2100054801F058FE07
:1044E000F9E7C046400C00203C0C0020B80C00202E
:1044F0009C87000000000000000000000000000099
:1045000010B501F05DFEFFF763FD01F039FF10BD4E
:10451000F0B5DE4657464E464546E0B583B0FFF758
:10452000B7FD3C4B00259A463B4B01269B46EBB220
:1045300018009946FFF7B4FE6B0098465346424672
:104540009C5A070084420FD05B4602221B781A4215
:1045500057D100237C40A4B222001A41D9B216429E
:1045600031D101330B2BF7D10135042DDFD10123DC
:104570006A465B4213800023937001F029FE0123F9
:1045800018436B4698800199009800F059F801F0A3
:104590007FFB02F005FCFFF703FF204C23788342EA
:1045A0000AD0FFF7FDFE1C4B20701A78052313403C
:1045B000052B29D001F08CFB03B03CBC90469946FA
:1045C000A246AB46F0BD9E406A46374011707B1E46
:1045D0009F4149469770517001F0FAFD012318433D
:1045E0006B4698800199009800F02AF8009801998C
:1045F00001F056FB424653469B5A5E4053469E523C
:10460000C5E7FFF755FEA4E70100054801F0C0FD2E
:104610002078CFE7480C0020B80C0020440C002084
:10462000D087000000000000000000000000000033
:1046300010B5FFF795FE10BD00000000000000005F
:1046400000B587B001918BB2694600908881002B3C
:1046500007D00B4B82B29A4203D00098019901F027
:104660001FFB002204ABDA80009A04926A4692880B
:104670009A800098059900F093FE07B000BDC046EF
:10468000FFFF00000000000000000000000000002C
:1046900010B5041E1ED082281DD0832837D0842850
:1046A00047D0031FDBB2A02B27D903002033DBB296
:1046B000072B00D885E003005B33DBB2022B4AD81E
:1046C000A52800D187E0A63C2000441EA0418230EE
:1046D000FFF7C6FE10BDFFF763FE8307FAD439204B
:1046E00001F08EF801F05CF86420FDF781F83920C4
:1046F00001F0D6F801F054F8ECE702F049FF002889
:10470000E8D1200001F07CF801F04AF8E2E7FFF779
:1047100047FEC307DED4532001F072F801F040F8E1
:104720006420FDF765F8532001F0BAF801F038F87D
:10473000D0E7FFF735FE4307CCD4472001F060F8FF
:1047400001F02EF86420FDF753F8472001F0A8F897
:1047500001F026F8BEE703005833DBB2142BB9D8BA
:10476000A8283AD0A9283AD0AA283AD0AB283AD0DB
:10477000AC283AD0AD283AD0AE283AD0AF283AD0BB
:10478000B1283AD0B0283AD0B2283AD0B3283BD09A
:10479000B4283FD0B5283AD0B62840D0B7283CD06E
:1047A000B82844D0B92840D0BA283CD0BB2838D04B
:1047B000BC3C604260411F4B40421840FFF778FE0E
:1047C00088E7072301201C40A040C0B201F0B8F8E0
:1047D00000F0E6FF7EE781207AE7E220EEE7E920BD
:1047E000ECE7EA20EAE7B520E8E7B620E6E7B32001
:1047F000E4E7B420E2E7B720E0E7CC20DEE7CD2015
:10480000DCE78420FF30D9E7C5204000D6E7CA2086
:104810004000D3E7C9204000D0E70748CEE707486B
:10482000CCE70748CAE70748C8E70748C6E7892032
:104830008000C3E72A0200002302000021020000DA
:1048400027020000260200002502000000000000F0
:1048500010B5002817D0822816D083282BD08428A2
:104860003BD0031FDBB2A02B20D903002033DBB2E7
:10487000072B44D903005B33DBB2022B4DD95830F0
:10488000C0B2142845D910BDFFF78AFD8307FAD5B9
:10489000392000F0B5FF00F083FF6420FCF7A8FF8B
:1048A000392000F0FDFF00F07BFFECE700F0F8FF9F
:1048B00000F076FFE7E7FFF773FDC307E3D553206A
:1048C00000F09EFF00F06CFF6420FCF791FF532086
:1048D00000F0E6FF00F064FFD5E7FFF761FD430756
:1048E000D1D5472000F08CFF00F05AFF6420FCF780
:1048F0007FFF472000F0D4FF00F052FFC3E70723FB
:10490000034001209840C0B201F022F800F048FFB7
:10491000B9E70020FFF7CCFDB5E70020FFF7A0FDC9
:10492000B1E7C046000000000000000000000000E9
:10493000F0B5C64600B584B0040002AD0100062201
:10494000280002F0CDFF6946A6792A88A388A778B7
:1049500036098A80002B35D0B64B92B29A4231D0BC
:10496000286800F0F5FE051C00F0EAFE00F020FECD
:104970002A04130FB0499B00CB589F46AA05920FFB
:10498000D3B25B08002F01D001231340002B19D0B4
:104990002B065B0F28079B00000F984004000020A7
:1049A000EA0602D50F309840C0432D05AD0F022D09
:1049B00000D15EE100D92DE12043012D00D12CE191
:1049C00000F09EFE04B004BC9046F0BD2A05120F14
:1049D000E9B22000FFF7ACFA00F052FDF2E70F2336
:1049E0002C05120E240F9A4300D02401EDB2002FA3
:1049F00000D1DCE0002C00D0E5E02800FFF748FE05
:104A0000E0E72B051B0F98460F23120E9A43202A2E
:104A100002D043461B019846E8B2002800D1BBE013
:104A2000012800D0A4E0002F00D1E2E0052EC9D873
:104A300000F07EFF4346034200D1B3E0404600F061
:104A400087FF00F0ADFEBDE72B059B0F00D188E08E
:104A5000012BB7D1002F00D1C7E0A805800DFFF7CB
:104A600027FDAFE7E8B2002F76D002F011F802F090
:104A700027F9A7E79201920F00D07FE7002FA1D17D
:104A80002B065B0F28079B00000F984004000020B6
:104A9000EA0602D50F309840C0432D05AD0F022D18
:104AA00000D1E2E000D9BBE02043012D00D1BAE003
:104AB00000F0A6FD86E7ECB223004033DBB2332BD7
:104AC00040D85E4A9B00D3589F462A05120FE9B290
:104AD000200001F03DF875E7002F00D1C2E0E804A6
:104AE000C00E00F0BDFD6DE7E804C00E002F06D03B
:104AF00000F0D6FD66E7E804C00E002FF8D000F005
:104B0000BFFD5FE71026E804C00E2640002F00D14D
:104B100096E000F0B5FD002E00D1AEE02401E0B239
:104B2000002800D14EE700F00BFF00F039FE49E706
:104B3000002F7BD0042E00D944E7E804C00E00F01B
:104B4000BFFD3FE7002F00D188E0002E00D197E0A5
:104B50002000FFF79DFD35E702F022F802F0B0F8E3
:104B600030E7002F4DD0A805800DFFF779FC29E72D
:104B7000002F4AD0002E15D0A279D307E9D50F23F4
:104B80001340A3714346002B00D11BE7404600F0C1
:104B9000D7FE00F005FE15E7002F1AD0002E01D039
:104BA000012E76D04346002B00D10BE7EEE728001C
:104BB000FFF74EFE002C00D104E7200000F0E8FED5
:104BC00000F0EEFDFEE6200000F0DAFE00F0E8FD69
:104BD00013E7002E02D0012E00D1F3E600F0F0FE24
:104BE0004346002B00D1EDE628E70020FFF760FCEC
:104BF000E8E6042E00D9E5E64346002B00D1E1E6C5
:104C00001CE70020FFF72CFCDCE6002EF4D0FFF7B9
:104C10001FFED7E600F074FD200000F061FDD1E634
:104C200000F0EEFC200000F0DBFCCBE6052E00D906
:104C3000C8E682E7FFFF0000DC8700001C88000058
:104C400000F02EFD002E1ED02401E0B2002800D17D
:104C5000B8E600F07DFE00F0A3FDB3E6002E15D00F
:104C60002000D4E700F0ECFCACE6204300F0D8FCD8
:104C7000A8E6204300F054FDA4E60F2020404FE7B3
:104C8000E804C00E3BE70F202040DFE7E804C00E39
:104C90002EE7404600F08CFE94E6C046000000007F
:104CA00010B500F07DFE00F033FE00F079FD02F05B
:104CB00007F902F005F80020FFF7D2FB0020FFF70C
:104CC000F7FB10BD00000000000000000000000025
:104CD00010B500F04DFEFFF7E3FF10BD000000002F
:104CE00010B582B001AB1880019800F031FD0121B0
:104CF0000C0003041B0F9C40230090242402C2B22A
:104D0000234217D1C02109010B4209D10C210020F7
:104D1000194211D0A42A15D8042A11D2012A0FD978
:104D2000E72A0BD8E02A0BD2043AD2B2A02A07D93C
:104D3000002001E0C00A084002B010BDF02AF7D1FF
:104D40000120F9E713002033DBB2072BE8D8F7E79F
:104D500082B002B07047C0460000000000000000B2
:104D600082B002B07047C0460000000000000000A2
:104D7000F8B50A4B0A4E1C783378A3420CD00727AB
:104D8000084DE300E858EB185968FFF7E9FF33785E
:104D900001343C40A342F4D1F8BDC046990C002038
:104DA000980C0020580C00200000000000000000BB
:104DB000F0B5DE4657464E464546E0B5394B3A4AD1
:104DC0001B78117887B08B4256D0384A384C90887F
:104DD000567893461278A046241A9446039405AA5E
:104DE0000296019004E00720013303408B4243D038
:104DF00001980028F7D068466446007A1470507015
:104E000014884445EFD02B48DC000619B1460298BF
:104E100076788642E7D12748065D6645E3D14E465F
:104E2000B6783000371EDED14E46B688019DB246B8
:104E3000AA4528D203983E008146CA445046C72559
:104E40005746C00FBD424641F0B281464E46002E45
:104E5000C9D05B469A790F23102158461A400A435D
:104E60008271144A94466444A27913400B43A3719F
:104E7000FFF75EFDFFF77CFF07B03CBC904699460C
:104E8000A246AB46F0BD5646761BB246F60FB1467B
:104E9000C72506004F46504685427E41F0B2814606
:104EA000D4E7C046990C0020980C0020500C00203C
:104EB000FFFF0000580C0020000000000000000070
:104EC000F0B54546DE4657464E460400E0B591B083
:104ED000010006220AA802F003FDA188C94D23782B
:104EE0008846AE88298802A80093A77863788180D5
:104EF000002E59D068782A78844688B28146C24804
:104F000001928246814543D0A8788146002800D18D
:104F100079E0B04500D3C4E05246901BC7229246C8
:104F2000002251464044C60F81425641F6B2A8794C
:104F300082460F208346504659468843002E00D1B2
:104F4000EEE0002800D02AE16A46127904A8027037
:104F5000624642700088AC49884200D1ACE0202013
:104F600002AA12186846007829881070212002AA27
:104F70001218137002AA108C884200D09CE0002FF7
:104F800000D1F5E10122AB791343AB71002611E0AA
:104F90006A466146127908A8027041700088484547
:104FA00002D0A878002837D0002F0BD12000FFF7BF
:104FB000BFFC0126300011B03CBC90469946A24689
:104FC000AB46F0BD6A462020127802A909180A7083
:104FD000212102AA521813700A98FFF781FE0028B7
:104FE000E4D008222100280002F07AFC0F22AB79DD
:104FF000934303D1AB78002B00D02BE103CDFFF717
:10500000AFFE0126D6E76A466146127908A802700B
:10501000417000885045C7D04246901BB04502D22F
:10502000794A91464844C722914600224946C60F14
:1050300081425641F6B2002E00D1EDE03E1EB5D0C1
:105040006A46127909A802706246427000886E4969
:1050500088420FD0202002AA1218684600782988BA
:105060001070212002AA1218137002AA108C884214
:1050700000D1F7E0202102AA521869460978117080
:10508000212102AA521813700A98FFF729FE00285E
:10509000A7D10122AB791343AB712000FFF748FC85
:1050A00088E74146881BC7218A4600215246C60F21
:1050B00082424E41F6B23AE74246002A00D1CCE0A5
:1050C0006A46127805A90A704B7008884E498842D2
:1050D00000D1C2E0002F00D054E74C494C48097879
:1050E00002789046914200D1FBE04A4A944607225A
:1050F000914605E0484601310140414500D1F0E0CC
:105100006546C8002D186F789F42F3D16246105C47
:10511000009A9042EED1A8780028EBD0002649E70B
:10512000002800D1C5E06A46127907A802706246DD
:1051300042700088344988420FD0202002AA1218F9
:105140006846007829881070212002AA121813706E
:1051500002AA108C884200D1A2E0202102AA521893
:10516000694609781170212102AA521813700A9811
:10517000FFF7B6FD002800D118E7002F00D115E792
:10518000AB791F2B00D82CE70EA82A8883710280E8
:105190000022827042468280FFF7CAFB21E76A46FE
:1051A000127906A802706246427000881649884249
:1051B0000FD0202002AA12186846007829881070A3
:1051C000212002AA1218137002AA108C884200D162
:1051D000B1E0202102AA52186946097811702121F4
:1051E00002AA521813700A98FFF77AFD002800D11E
:1051F000DCE6002F00D1D9E6AB790CA81F2B00D834
:10520000EFE6C2E7500C0020FFFF0000990C0020E1
:10521000980C0020580C0020222102AA5218414666
:10522000177002AA918420215218694609781170DA
:10523000212102AA521813700A980B99FFF788FDD2
:1052400008220021280002F08FFB00200021FFF738
:1052500087FDAFE6FFF7ACFDD0E6002F00D091E66A
:105260000026A7E6AB79DA075FD40F221900914335
:105270005BD01900A3719143F02905D019090131C0
:10528000090113400B43A3712000FFF751FB2100DC
:105290000822280002F024FB03CDFFF761FD89E618
:1052A000002F52D00A98FFF71BFD002800D067E7B7
:1052B0007CE6222102AA52184146177002AA918464
:1052C00020215218694609781170212102AA52182A
:1052D00013700A980B99FFF73BFD2800FFF728FB96
:1052E000AEE7202102AA52186946097811702121DF
:1052F00002AA521813700A9800F02AFAC2B20004E7
:10530000030F012B2DD9032B00D9C6E60F23000E66
:10531000034203D0A179994300D137E62032D2B2BB
:10532000072A00D9B9E6002644E608222100280011
:1053300002F0D6FA3EE65346002FA4D00A98FFF7B3
:10534000CFFC002800D057E730E653462000A37179
:10535000FFF7EEFA08220021280002F005FB4E4676
:1053600028E60001000FD9D0002AD7D1002621E677
:1053700052465B46134010221343AB71286869689C
:10538000FFF7EEFC2800FFF7D3FAAB790026A371F4
:1053900010E6C04600000000000000000000000011
:1053A000F0B587B06C46009020006160FFF788FD83
:1053B000051E2BD02288A3882281002B1ED12A4EC5
:1053C0002A4C33782078834216D0294D07270DE0E8
:1053D0002378DB00E858EB185968FFF7C1FC207808
:1053E0003378013038402070834205D0C00028183F
:1053F000FFF766FD0028EBD107B0F0BD22891D4BF9
:105400009A42DCD003CCFFF7ABFCD8E704AA21001A
:10541000130041C941C31388A188A381124E134CC4
:10542000337820780029CED069468F8911498F4280
:10543000C9D007215F1C394081420AD00C4DDB00E6
:10544000ED1809CA09C53170FFF792FC337820784E
:10545000B9E7FFF73DFC08220021074835702570A9
:1054600002F082FAC8E7C046980C0020990C002090
:10547000580C0020FFFF0000500C0020000000002E
:10548000F0B5D6464F4646460500C0B500283DD08B
:105490007F239946783B00270026984628786C1C85
:1054A000752822D0752823D8732851D804284BD2C8
:1054B000012838D0022829D16878AC1C0300203399
:1054C000DBB2072B64D9FFF7C3F92500741EE4B2E1
:1054D000002EE3D0013C0120E4B2FCF789F9FF2C57
:1054E000F8D128786C1C7528DCD16E780235EDE790
:1054F00078283DD00FD8762840D0772806D13800BC
:1055000000F02EFA250000F04BF9DFE71CBC9046B6
:105510009946A246F0BD03007C33DBB26F2BF5D871
:105520004B461840CFE76B78AC1C1A002032D2B241
:10553000072A28D8424613409840C0B200F020FA0B
:10554000250000F02DF9C1E7FFF7A2F82500BDE71F
:10555000AB1C9A466B785C1EE4B2002B06D0013C73
:105560000120E4B2FCF744F9FF2CF8D15546ADE731
:1055700000F0FEF9250000F013F9A7E700F0D8F9D4
:1055800025000700A2E71800FFF782F825009DE735
:105590004346184001238340D8B200F0F9F92500B2
:1055A00000F0FEF892E7C046000000000000000096
:1055B0007047C0460000000000000000000000002E
:1055C00010B5034B186000F073FBFFF769FB10BDCB
:1055D0009C0C002000000000000000000000000003
:1055E00010B5044B1A681043186000F061FBFFF718
:1055F00057FB10BD9C0C00200000000000000000C4
:1056000010B5044B1A681040186000F051FBFFF70A
:1056100047FB10BD9C0C00200000000000000000B3
:1056200010B5044B1A685040186000F041FBFFF7BA
:1056300037FB10BD9C0C00200000000000000000A3
:10564000002210B5034B00201A6000F039FBFFF771
:1056500027FB10BDA00C002000000000000000008F
:1056600001238340180010B5034B186000F028FB9D
:10567000FFF716FB10BDC046A00C00200000000084
:1056800003000120984010B5044B1A6810431860BD
:1056900000F016FBFFF704FB10BDC046A00C002075
:1056A0000123834010B5044A10689843106000F04D
:1056B00007FBFFF7F5FA10BDA00C0020000000006A
:1056C00003000120984010B5044B1A685040186040
:1056D00000F0F6FAFFF7E4FA10BDC046A00C002077
:1056E00010B5044B1A681043186000F0E9FAFFF790
:1056F000D7FA10BDA00C0020000000000000000040
:1057000010B5044B1A681040186000F0D9FAFFF782
:10571000C7FA10BDA00C002000000000000000002F
:1057200010B5044B1A685040186000F0C9FAFFF732
:10573000B7FA10BDA00C002000000000000000001F
:105740007047C0460000000000000000000000009C
:10575000F0B50F4B83B01D680E4B01AE1B68308057
:105760001D431F24012701E0013C0CD32B00E34023
:10577000E0B21F42F8D0316800F0F2F980B201289F
:10578000F2D003B0F0BD0199002000F0E9F9F8E78C
:10579000A00C00209C0C0020000000000000000075
:1057A00070B5114B114A1868114B12781B78114DC6
:1057B000134300220370AA56002A11D00400134399
:1057C000002203701034431C1978002901D00132E3
:1057D000D2B20133A342F7D1002A01D000232B70AB
:1057E000FEF7EEFD70BDC04634FEFF1FB60C002074
:1057F000B50C0020B40C00200000000000000000E8
:1058000070B51F4B1B78002B03D01E4B1B78002B51
:105810001FD101251C4B6D42196800238A1C05E02D
:105820000133DCB2013263B20E2C0DD01478A042E9
:105830000ED06E1CF4D1002CF2D11D000133DCB26D
:10584000013263B20E2CF1D16B1C01D04D19A8703E
:1058500070BDC3080E2B08D90C4B1B78DB07F7D59E
:1058600001000B4800F094FCF2E7074A0721126898
:105870000840D2180123834051780B435370E7E767
:1058800000FEFF1F31FEFF1F34FEFF1FB80C00207B
:10589000EC88000000000000000000000000000094
:1058A00010B5164B1B78002B03D0154B1B78002B23
:1058B0000CD10021134B1C68A31C10341A788242AF
:1058C00000D119700133A342F8D110BDC3080E2BCB
:1058D00008D90D4B1B78DB07F7D501000B4800F00A
:1058E00057FCF2E70721084006398140054A126853
:1058F000D3185A788A435A70E7E7C04600FEFF1F64
:1059000031FEFF1F34FEFF1FB80C00200C89000081
:105910000021044B1A68531C103219700133934252
:10592000FBD1704734FEFF1F0000000000000000A4
:10593000014B18787047C046B50C002000000000ED
:10594000024B1A78104318707047C046B50C0020FF
:10595000024A1378834313707047C046B50C002089
:10596000014B18707047C046B50C002000000000C5
:105970000022014B1A707047B50C00200000000097
:10598000024B1A78104318707047C046B60C0020BE
:10599000024A1378834313707047C046B60C002048
:1059A0000022014B1A707047B60C00200000000066
:1059B000014B18707047C046B40C00200000000076
:1059C0000022014B1A707047B40C00200000000048
:1059D00010B50300BC2809D8A82818D2A42851D88B
:1059E00004284DD20120012B0FD110BDE72841D84A
:1059F000E02845D2BF2808D1FFF76AF93220FBF72B
:105A0000F7FE00F05DFC0020EFE70020EDE7A8289E
:105A100042D0A92844D0AA283CD0AB2842D0AC28F8
:105A200042D0AD2842D0AE2842D0AF2842D0B128D3
:105A300042D0B02842D0B22842D0B32842D0B428B5
:105A400042D0B52842D0B62842D0B72842D0B82894
:105A500042D0B92844D0BA2840D0BB2842D0BC3B61
:105A60005842434120485B4218408823DB019C4652
:105A70006044BAE7F028C8D3A020C0011843B4E7B7
:105A8000181CB2E7A52809D0A63B581E8341174A27
:105A90009818AAE71648A8E71648A6E71648A4E704
:105AA0001648A2E71648A0E716489EE716489CE766
:105AB00016489AE7164898E7164896E7164894E776
:105AC000164892E7164890E716488EE716488CE786
:105AD00016488AE7164888E7164886E7164884E796
:105AE000164882E7164880E72A020000824000003C
:105AF000EA440000E244000081400000E944000064
:105B0000B5440000B6440000B3440000B4440000B3
:105B1000B7440000CC440000CD44000083450000A1
:105B20008A4500009245000094450000214600008F
:105B300023460000244600002646000025460000BB
:105B400027460000000000000000000000000000E8
:105B50007047C04600000000000000000000000088
:105B600000B583B001AB19800199FEF7D9FBDF289E
:105B70000ED8C0283AD2312842D018D829282FD0A0
:105B80002A284FD12D4B1B785B063DD531202FE0C5
:105B9000E3283BD017D9E6283ED0E72842D1274B4F
:105BA0001B781A073CD4DB0646D5002020E03928B4
:105BB00020D082281ED0352834D1204B1B789B065C
:105BC00012D5292014E0E0282FD0E2282AD11B4B3F
:105BD0001B785A071ED5E320DB0609D5002007E015
:105BE000164B1B789B06ECD5352001E0FEF7B0FB89
:105BF00003B000BD114B1B789B0713D0E020F7E7E3
:105C00000E4B1B785B06C1D52A20F1E70B4B1B78A6
:105C10005A07E0D5E220EBE7084B1B781A07C2D4FD
:105C2000E620E5E7FFF7D4FEE2E7044B39201B78D6
:105C3000DB07DDD4E020DBE7E720D9E7C40C002058
:105C400010B53324C3B219011B091943C9B28B0023
:105C500089102140A343000A0B43010100090843B6
:105C60005521C0B2820080102040DBB2A243024323
:105C700058005B108843D2B20B40034350005210CF
:105C800088430A401043DBB21B02C0B2184310BD68
:105C90007047C04600000000000000000000000047
:105CA00082B002B07047C046000000000000000053
:105CB0007047C04600000000000000000000000027
:105CC0007047C04600000000000000000000000017
:105CD00010B5FEF7ADFC10BD000000000000000094
:105CE0007047C046000000000000000000000000F7
:105CF00010B51120FBF77CFD10BDC0460000000070
:105D00007047C046000000000000000000000000D6
:105D10007047C046000000000000000000000000C6
:105D200010B5FFF7EDFF0024FEF7B2F9FFF7F0FF23
:105D30002000FEF7B5FA002804D10134E4B2042CA7
:105D4000F6D110BD0120FCE70000000000000000BB
:105D500010B5FFF70DFEFFF723FEFFF7D9FD01F0A9
:105D6000AFF80020FEF77CFB0020FEF7A1FB10BD82
:105D7000F8B5454657464E46DE469846E0B50124FE
:105D800006000F001500884208D37C433000210034
:105D9000FAF7CCFBB842F8D2002C2AD0002399465F
:105DA0006B425D416B429A4620239B4621003000A6
:105DB000FAF742FC05000E0020003900FAF7B6FBA6
:105DC0004B460400002B01D1002D1BDD3023092D93
:105DD00003DD5B465246134037335D1943461D7061
:105DE000012342469C460132E144002C02D09046F9
:105DF000DCE74246002313703CBC90469946A2461D
:105E0000AB46F8BD002802D042469046CEE7434656
:105E100030355A1C1D70EDE7000000000000000046
